:020000008E2848
:1000060083120313FD01F801700803190034740606
:10001600FA00FA1BFD09FB01F41F1328F409F40A80
:10002600F01F1728F009F00A70087404FA00FA1B8A
:100036003B287408F802F00D700DF80D7408F807E7
:10004600F00D0630FC00700DF80D74087018F802FB
:10005600701CF807F00DFC0B2628701CF8077B189F
:100066004928FD1F0034F009F00AF809F80A00349F
:10007600F41F4628F01B43287008F800F0013428C6
:10008600F001F00A0034F009FB0A1C28F80A74088B
:100096007802031D3428F801F00AF01F3428FF34D3
:0200A600080050
:0E00A8008312031323088A0022088200080036
:1000B60054208A110A128000840AA20A0319A30A8C
:0800C600F003031D5B28080094
:1000CE000A3083120313F4002808F000032070088E
:1000DE00A9000A30F4002808F00003207808F00088
:1000EE0085100510851105117008880029088600F5
:1000FE000B30FB002630FC005D30FD00FD0B85282B
:0E010E00FC0B8528FB0B852800000000080074
:10011C0083120313A001A101073083169F008801ED
:10012C008312880183168601831286018316870148
:10013C00831287018316051083120514831685100C
:10014C0083128514831605118312051583168511E8
:10015C00831285158316861683128601831606175D
:10016C008312861A4A2986018801061F032900304A
:10017C002106031DC32800302006031D032901306E
:10018C00A0000030A1000330A60080302606F0004D
:10019C008030003A7002031CFF280A3087000A30B6
:1001AC00F4002608F00003207008A7002708A4001C
:1001BC000A30F4002608F00003207808F0007008DC
:1001CC00A5008514051485110511700888002708F1
:1001DC0086000B30FB002630FC005D30FD00FD0B73
:1001EC00F528FC0BF528FB0BF52800000000A603F6
:1001FC00CB288601880121308700061F4929003051
:10020C002106031D0B2901302006031D4929A001DD
:10021C00A1010330A60080302606F0008030003AA1
:10022C007002031C4529113087000A30F40026089F
:10023C00F00003207008A7002708A4000A30F4007F
:10024C002608F00003207808F0007008A50085103F
:10025C0005108515051570088800270886000B30D9
:10026C00FB002630FC005D30FD00FD0B3B29FC0B38
:10027C003B29FB0B3B2900000000A603112986013A
:10028C0088010C308700A629861E60291730A6002D
:10029C0080302606F0008030043A7002031C60297E
:1002AC00213087002608A8006720861A5E2960295D
:1002BC00A6034E29861E76290330A600803026061A
:1002CC00F0008030003A7002031C76291130870050
:1002DC002608A8006720861A74297629A6036429A3
:1002EC00861E8C290F30A60080302606F000803048
:1002FC00043A7002031C8C290C3087002608A800D5
:10030C006720861A8A298C29A6037A29861EA22997
:10031C000330A60080302606F0008030003A7002D0
:10032C00031CA2290A3087002608A8006720861A19
:10033C00A029A229A6039029861AA529A6294A290B
:04034C00B628A729FF
:02400E004A2F37
:00000001FF
